:020000040800F2
:10000000C04E0120F5050008D1030008D303000805
:10001000D7030008DB030008DF030008000000002E
:10002000000000000000000000000000A501000822
:10003000E303000800000000010200089D1F000803
:100040000F0600080F0600080F0600080F0600083C
:100050000F0600080F0600080F0600080F0600082C
:100060000F0600080F0600080F0600080F0600081C
:100070000F0600080F0600080F0600080F0600080C
:100080000F0600080F0600080F0600080F060008FC
:100090000F0600080F0600080F0600080F060008EC
:1000A0000F0600080F0600080F0600080F060008DC
:1000B0000F060008055900080F0600080F06000883
:1000C0000F0600080F0600080F0600080F060008BC
:1000D0000F060008472100080F0600080F06000859
:1000E0000F0600080F0600080F0600080F0600089C
:1000F0000F0600080F0600080F0600080F0600088C
:100100000F0600080F0600080F0600080F0600087B
:100110000F0600080F0600080F0600080F0600086B
:100120000F0600080F0600080F0600080F0600085B
:100130000F0600080F0600080F0600080F0600084B
:100140000F0600080F0600080F0600080F0600083B
:100150000F0600080F0600080F0600080F0600082B
:100160000F0600080F0600080F0600080F0600081B
:100170000F0600080F0600080F0600080F0600080B
:100180000F0600080F060008DFF80CD005F01EFC73
:100190000048004739030008C04E012040BA7047AC
:1001A000C0BA70472C4B19680868B0E8F04F80F36C
:1001B0000988BFF36F8F4FF0000080F311887047FC
:1001C0000000000008480068006880F308884FF0CD
:1001D000000080F3148862B661B6BFF34F8FBFF39F
:1001E0006F8F00DF00BF00BF08ED00E0DFF80C00FC
:1001F000016841F470010160704700BF88ED00E0C4
:10020000EFF30980BFF36F8F134B1A681EF0100FC6
:1002100008BF20ED108A20E9F04F106009B44FF0BC
:10022000500080F31188BFF34F8FBFF36F8F03F03F
:1002300016FC4FF0000080F3118809BC19680868AB
:10024000B0E8F04F1EF0100F08BFB0EC108A80F33A
:100250000988BFF36F8F704744000020EFF30580DB
:10026000704700004FF4FA6005F00DFA04460AE00A
:10027000204604F04AFA21463EA005F0B9FB4FF4AF
:100280007A7003F0BCFAF3E72DED028B00249FEDAA
:100290003B0AB0EE408A0FE0641C39480068C04356
:1002A0003849C1F8A802B7EE000A38EE000AB0EEED
:1002B000408A012003F0A3FAEEE709E03048001D70
:1002C0000068C0432F49C1F8AC02012003F097FA3F
:1002D000F4E71CB5044605F0D1F800220121042002
:1002E00002F01EF8284908602848022100239622BF
:1002F000CDE9001026A1AFF23D0003F001F8274838
:10030000032100239622CDE9001025A1AFF287003A
:1003100002F0F6FF2548042100238A01CDE90010F0
:1003200023A1AFF2BF0002F0EBFF2548006803F005
:1003300035F805F0CAF81CBD1CB54FF4407000F04C
:100340006BF9A82001F032FE4FF4E13001F0A9FE74
:1003500005F086FA1A48012100238022CDE9001019
:1003600018A1AFF2910002F0CBFF03F01CFD0020BA
:100370001CBD000025730D0A0000000000000000F5
:10038000A88240420080404210000020040000206B
:100390006C6564305F7461736B00000008000020BE
:1003A0006C6564315F7461736B0000000C000020A9
:1003B00072756E73746174655F7461736B000000B5
:1003C0000000002073746172745F7461736B0000CD
:1003D000704700BFFEE700BFFEE700BFFEE700BFBB
:1003E000FEE770470CB50020019000907648006849
:1003F00040F480307449086000BF7348006800F41E
:10040000003000900198401C0190009818B90198A4
:10041000B0F5A06FF1D16C48006800F4003010B165
:100420000120009001E0002000900098012846D1B2
:1004300065484030006840F08050634940310860B2
:100440006248006840F48040604908605E480830B7
:1004500000685D49083108600846006840F40040C3
:1004600008600846006840F4A05008605848091F1A
:100470000860081F006840F08070091F086000BF16
:100480005148006800F000700028F9D040F2057073
:10049000504908604C480830006820F003004A4981
:1004A000083108600846006840F00200086000BF9C
:1004B00045480830006800F00C000828F8D10CBD51
:1004C00010B54548006840F47000434908603E4854
:1004D000006840F001003C49086000203A490831BA
:1004E0000860394800683D490840374908603C4881
:1004F000091D0860081F006820F48020091F08609B
:10050000002031490C310860FFF76CFF4FF00060AC
:1005100031498039086010BD70B5002000220223E7
:1005200000240221284D08352D6805F00C0020B16B
:10053000042806D0082834D107E02A4D2A4E356019
:1005400033E02A4D284E35602FE01F4D2D1D2D68BC
:10055000C5F380541C4D2D1D2D6805F03F0154B18D
:10056000224DB5FBF1F5184E361D3668C6F38816D8
:1005700005FB06F209E01B4DB5FBF1F5124E361DE9
:100580003668C6F3881605FB06F20F4D2D1D2D6843
:10059000C5F301456D1C6B00B2FBF3F5124E3560DF
:1005A00003E0104D104E356000BF00BF064D08350A
:1005B0002D68C5F303150E4E705D0B4D2D68C540BB
:1005C000094E356070BD00000038024000700040E8
:1005D00019544007003C024088ED00E0FFFFF6FEA2
:1005E000103000240024F4001400002040787D0125
:1005F000180000200648804706480047FEE7FEE74F
:10060000FEE7FEE7FEE7FEE7FEE7FEE7FEE7FEE7C2
:10061000C10400088901000832490143324A1160CF
:10062000704770B5002100230F22C4781CB32E4CF4
:10063000246804F4E064C4F5E064C4F30721C1F164
:100640000404E3B20A4144789C40E1B28478144047
:1006500021430C07210E254C05786155047804F0E0
:100660001F050124AC4005786D11AD0005F1E025B2
:10067000C5F8004109E0047804F01F050124AC40EE
:100680001B4D0678761145F8264070BD194A0A4080
:100690000243154B1B1F1A60704739B1124A121DD5
:1006A00012680243104B1B1D1A6006E00E4A121D11
:1006B000126882430C4B1B1D1A607047042808D136
:1006C0004FF0E021096941F004014FF0E02211618F
:1006D00007E04FF0E021096921F004014FF0E0222A
:1006E000116170470000FA050CED00E000E400E045
:1006F00080E100E080FFFF1F10B504468C48844273
:1007000008D10121084600F000FB0021012000F083
:10071000FCFA5EE08748844208D10121022000F003
:10072000F4FA0021022000F0F0FA52E082488442FC
:1007300008D10121042000F0E8FA0021042000F093
:10074000E4FA46E07D48844208D10121082000F007
:10075000DCFA0021082000F0D8FA3AE07848844218
:1007600008D10121102000F0D0FA0021102000F063
:10077000CCFA2EE07348844208D10121202000F0F9
:10078000C4FA0021202000F0C0FA22E06E48844222
:1007900008D10121402000F0B8FA0021402000F0EB
:1007A000B4FA16E06948844208D10121802000F0A3
:1007B000ACFA0021802000F0A8FA0AE064488442E4
:1007C00007D10121801500F0A0FA0021A01500F04A
:1007D0009CFA10BDF0B50A4600210023002400BF9A
:1007E0003DE0012505FA01F3156805EA03049C4282
:1007F00034D105684F000326BE40B5430560157926
:100800004E00B5400668354305601579012D02D0CC
:100810001579022D16D185684F000326BE40B543D9
:10082000856055794E00B5408668354385604568DA
:1008300001268E40B5434560456896798E40B6B234
:1008400035434560C5684F000326BE40B543C560CB
:10085000D5794E00B540C6683543C560491C10299E
:10086000BFD3F0BD4FF6FF710160002101714171EE
:100870008171C171704708B54FF480320092009ABF
:100880000A430092009AC261C161009AC261C269C2
:100890000092C269009208BD0246002013690B4015
:1008A0000BB1012000E0002070470146086980B2CA
:1008B00070470246002053690B400BB1012000E055
:1008C000002070470146486980B270470183704735
:1008D000418370470AB1018300E041837047416161
:1008E000704742694A4042617047F0B500230024D6
:1008F0004D07ED0E02FA05F3CE1000F1200555F874
:1009000026504E07F70E0F26BE40B543CF1000F11C
:10091000200646F82750CE1000F1200555F8265045
:1009200045EA0304CE1000F1200545F82640F0BD4D
:10093000000002400004024000080240000C024097
:10094000001002400014024000180240001C024047
:1009500000200240FA48006840F00100F8490860B1
:100960000020F74908310860F5480068F54908405B
:10097000F3490860F448091D0860081F006820F466
:100980008020091F08600020ED490C310860704785
:100990000121EB4A921C117011460870704710B586
:1009A00001460022002300204A11012A02D1E44C12
:1009B000236808E0022A03D1E14C7034236802E086
:1009C000DF4C7434236801F01F02012494401C4062
:1009D0000CB1012000E0002010BD38B500200090CF
:1009E0000024002500BF3120FFF7D9FF05460098FD
:1009F000401C00900098B0F5A06F01D0002DF2D0FF
:100A00003120FFF7CCFF08B1012400E0002420468C
:100A100038BD01460020CA4A106820F0F80040EABC
:100A2000C10010607047C949086070470021C44A7E
:100A3000703211701170012802D004280AD104E02C
:100A40000121BF4A7032117005E00521BC4A7032A5
:100A5000117000E000BF00BF7047BD4908607047DB
:100A600070B5049C41EA82150126C6EB530645EA9F
:100A70000645054345EA0465B14E361D356070BD37
:100A8000B24908667047820142EA0172AC4B843376
:100A90001A607047AD4988667047AC49C8647047B2
:100AA00002460020A64B0833186820F0EC6042EAAA
:100AB00001031843A24B0833186070470246002018
:100AC0009F4B0833186820F0784042EA010318432E
:100AD0009B4B08331860704701460020984A083243
:100AE000106820F0030008431060704794480830F5
:100AF000006800F00C00704701460020904A083260
:100B0000106820F0F0000843106070470146002094
:100B10008B4A0832106820F4E05008431060704798
:100B200001460020864A0832106820F4604040EAFE
:100B3000C10010607047F0B500210022002402259A
:100B4000002602237E4F08373F6807F00C0121B1D1
:100B5000042905D0082937D105E07E4F076036E02B
:100B60007D4F076033E0764F3F1D3F68C7F38056E7
:100B7000734F3F1D3F6807F03F036EB1764FB7FBE1
:100B8000F3F7DFF8BCC10CF1040CDCF800C0CCF3C7
:100B9000881C07FB0CF40CE06E4FB7FBF3F7DFF893
:100BA000A0C10CF1040CDCF800C0CCF3881C07FBDE
:100BB0000CF4634F3F1D3F68C7F301477F1C7D0066
:100BC000B4FBF5F7076002E0624F076000BF00BFAB
:100BD0005B4F08373F6807F0F00109095F4F7A5C07
:100BE0000768D7404760564F08373F6807F4E05121
:100BF000890A5A4F7A5C4768D7408760504F083758
:100C00003F6807F46041490B544F7A5C4768D7400E
:100C1000C760F0BD002100F44072B2F5407F0AD1F8
:100C2000474A0832116821F4F8114D4A0240114335
:100C3000434A08321160424A70321268C0F30B0313
:100C40001A433F4B70331A6070474149443908607A
:100C500070473F4940390860704742490860704713
:100C600039B1374A303212680243354B30331A609B
:100C700006E0334A303212688243314B30331A6017
:100C8000704739B12E4A3432126802432C4B343348
:100C90001A6006E02A4A343212688243284B343301
:100CA0001A60704739B1264A383212680243244B21
:100CB00038331A6006E0224A383212688243204BE9
:100CC00038331A60704739B11D4A40321268024306
:100CD0001B4B40331A6006E0194A403212688243C7
:100CE000174B40331A60704739B1154A44321268C5
:100CF0000243134B44331A6006E0114A443212682F
:100D000082430F4B44331A60704739B10C4A10329A
:100D1000126802430A4B10331A6006E0084A103288
:100D200012688243064B10331A607047E1B1044ADF
:100D3000143212680243024B14331A6019E00000A7
:100D400000380240FFFFF6FE10300024000047424A
:100D5000800E47420024F40040787D0128000020E6
:100D6000FFFCFF0F5C0147425B4A126882435A4B0B
:100D70001A60704739B1584A121D12680243564B27
:100D80001B1D1A6006E0544A121D12688243524B22
:100D90001B1D1A60704739B14F4A0C32126802436A
:100DA0004D4B0C331A6006E04B4A0C3212688243FA
:100DB000494B0C331A60704739B1474A10321268F8
:100DC0000243454B10331A6006E0434A1032126862
:100DD0008243414B10331A60704739B13E4A3C326E
:100DE000126802433C4B3C331A6006E03A4A3C32FC
:100DF00012688243384B3C331A60704739B1364A27
:100E0000403212680243344B40331A6006E0324AE3
:100E1000403212688243304B40331A60704739B118
:100E20002D4A4432126802432B4B44331A6006E0C9
:100E3000294A443212688243274B44331A60704770
:100E400039B1254A4C3212680243234B4C331A60A5
:100E500006E0214A4C32126882431F4B4C331A6021
:100E6000704739B11C4A5032126802431A4B503352
:100E70001A6006E0184A503212688243164B50330B
:100E80001A60704739B1144AD21F12780243124BCC
:100E9000DB1F1A7006E0104AD21F127882430E4BF5
:100EA000DB1F1A7070470C486030006840F080709B
:100EB000094960310860704701460020064A083A37
:100EC00012680A400AB1012000E000207047024980
:100ED000891F0870704700001438024010B504469E
:100EE000FE48844208D101210846FFF765FF002132
:100EF0000120FFF761FF9DE0B4F1804F08D101218F
:100F00000846FFF748FF00210120FFF744FF91E06A
:100F1000F348844208D101210220FFF73CFF002161
:100F20000220FFF738FF85E0EE48844208D1012116
:100F30000420FFF730FF00210420FFF72CFF79E0A9
:100F4000E948844208D101210820FFF724FF00214D
:100F50000820FFF720FF6DE0E448844208D101211A
:100F60001020FFF718FF00211020FFF714FF61E0A9
:100F7000DF48844208D101212020FFF70CFF002127
:100F80002020FFF708FF55E0DA48844208D101210C
:100F90000220FFF711FF00210220FFF70DFF49E0BB
:100FA000D548844209D101210804FFF705FF00213B
:100FB0004FF48030FFF700FF3CE0D048844209D175
:100FC00001214804FFF7F8FE00214FF40030FFF73D
:100FD000F3FE2FE0CA48844209D101218804FFF7BB
:100FE000EBFE00214FF48020FFF7E6FE22E0C5482B
:100FF000844208D101214020FFF7CDFE002140208E
:10100000FFF7C9FE16E0C048844208D101218020C4
:10101000FFF7C1FE00218020FFF7BDFE0AE0BB48BC
:10102000844207D101218015FFF7B5FE0021A015EC
:10103000FFF7B1FE10BD00220288A84B98420ED0E7
:10104000AC4B98420BD0B0F1804F08D0A44B9842E3
:1010500005D0A44B984202D0A34B984204D14FF63E
:101060008F731A404B881A43A04B984207D0A04B6D
:10107000984204D04FF6FF431A400B891A4302806E
:101080004B68C3620B880385944B984202D0994BFE
:10109000984201D18B7A03860123838270474FF0F7
:1010A000FF314160002101800181418081727047E0
:1010B0000185828270470A46002101884FF68F73AE
:1010C000194011430180704741627047C162704707
:1010D0000146486A70470146088D704721B1028871
:1010E00042F00202028004E002884FF6FD731A40CB
:1010F0000280704721B1028842F00402028004E0BD
:1011000002884FF6FB731A400280704721B10288B3
:1011100042F08002028004E002884FF67F731A409A
:101120000280704702884FF6F7731A4002800288E7
:101130000A430280704702884FF6FF431A4002803C
:1011400002880A430280704721B1028842F00102FE
:10115000028004E002884FF6FE731A400280704756
:1011600070B5002400220023058C4FF6FE76354032
:101170000584028C8388048B4FF68F752C40B51E36
:101180002C400D882C43751E2A408D892A434D889A
:101190002A43524DA84202D0564DA84213D14FF6D1
:1011A000F7752A40CD892A434FF6FB752A408D8872
:1011B0002A434FF6FF652B404FF6FF552B400D8A13
:1011C0002B434D8A2B43838004838D6845630284BF
:1011D00070BD70B5002400220023058C4FF6EF7619
:1011E00035400584028C8388048B48F6FF752C40BB
:1011F0004FF6FF452C400D884FF6FF7606EA052591
:101200002C434FF6DF752A408D8906EA05152A43DF
:101210004D8806EA05152A43304DA84202D0354DC7
:10122000A8421DD14FF67F752A40CD894FF6FF7633
:1012300006EA05152A434FF6BF752A408D8806EA4F
:1012400005152A434FF6FF352B404FF2FF752B4013
:101250000D8A06EA85052B434D8A06EA85052B4350
:10126000838004838D688563028470BD70B500241B
:1012700000220023058C4FF6FF6635400584028C62
:101280008388848B4FF68F752C404FF6FC752C406D
:101290000D882C434FF6FF552A408D894FF6FF7677
:1012A00006EA05252A434D8806EA05252A430B4D03
:1012B000A84202D00F4DA84238D14FF2FF752A4004
:1012C000CD894FF6FF7606EA05252A434FF6FF350E
:1012D0002A408D8806EA05252A4319E000000140CE
:1012E0000004004000080040000C004000100040D6
:1012F000001400400004014000400140004401404F
:101300000048014000180040001C00400020004040
:101310004EF6FF752B404DF6FF752B400D8A06EA01
:1013200005152B434D8A06EA05152B4383808483DC
:101330008D68C563028470BD70B50022002300244F
:10134000058C4EF6FF7635400584038C8488828BAD
:1013500048F6FF752A404FF6FF452A400D884FF6A4
:10136000FF7606EA05252A434DF6FF752B408D8949
:1013700006EA05352B434D8806EA05352B43FE4D1D
:10138000A84202D0FD4DA84208D14BF6FF752C4073
:101390000D8A4FF6FF7606EA85152C4384808283FA
:1013A0008D680564038470BD0021018041808180C7
:1013B00081608181C18101824182704770B503469D
:1013C000002000241846183001258D40ACB21D8C39
:1013D000A5431D8409B108290AD100EB6100056805
:1013E0004FF68F76354005600568154305600FE0C0
:1013F0000D1FC5F34E052844056848F6FF763540B5
:10140000056005684FF6FF7606EA0226354305605B
:1014100070BD4163704781637047C1637047016469
:1014200070470A460021018B4FF68F731940114314
:10143000018370470A460021018B48F6FF7319406B
:101440004FF6FF7303EA02231943018370470A46EC
:101450000021818B4FF68F731940114381837047B0
:101460000A460021818B48F6FF7319404FF6FF733F
:1014700003EA02231943818370470A460021018B46
:101480004FF6F77319401143018370470A46002154
:10149000018B4FF2FF7319404FF6FF7303EA0223EB
:1014A0001943018370470A460021818B4FF6F77379
:1014B00019401143818370470A460021818B4FF206
:1014C000FF7319404FF6FF7303EA02231943818328
:1014D00070470A460021018B4FF6FB7319401143F8
:1014E000018370470A460021018B4FF6FF331940F4
:1014F0004FF6FF7303EA02231943018370470A463C
:101500000021818B4FF6FB73194011438183704793
:101510000A460021818B4FF6FF3319404FF6FF73C7
:1015200003EA02231943818370470A460021018B95
:101530004FF67F7319401143018370470A4600211B
:10154000018BC1F30E014FF6FF7303EA0223194327
:10155000018370470A460021818B4FF67F73194043
:101560001143818370470A460021818BC1F30E012C
:101570004FF6FF7303EA02231943818370470A463B
:101580000021018C4FF6FD7319401143018470470F
:101590000A460021018C4FF6F7731940114301846C
:1015A00070470A460021018C4FF6DF7319404FF651
:1015B000FF7303EA02131943018470470A460021AE
:1015C000018C4FF67F7319404FF6FF7303EA021345
:1015D0001943018470470A460021018C4FF6FF53DE
:1015E00019404FF6FF7303EA022319430184704741
:1015F0000A460021018C4FF2FF7319404FF6FF732A
:1016000003EA02231943018470470A460021018C32
:101610004DF6FF7319404FF6FF7303EA0233194387
:101620000184704730B5002301248C40A3B2048CA0
:101630009C430484048C02FA01F5ADB22C4304846B
:1016400030BD30B5002304248C40A3B2048C9C43ED
:101650000484048C02FA01F5ADB22C43048430BD3D
:10166000828B4FF2FF331A408283828B4FF6FF73D7
:1016700003EA01231A4382837047F0B50C461546EE
:10168000002100220026078C4EF6FF7C07EA0C079B
:101690000784818B028C4FF6FF7707EA043640F609
:1016A000FF4739404FF6FF7707EA052739434FF6E2
:1016B000FF7707EA0337394345F6FF773A4046F4A8
:1016C00080573A4381830284F0BD828B4FF6F373D7
:1016D0001A408283828B0A4382837047F0B50C469E
:1016E0001546002100220026078C4FF6FF6C07EA02
:1016F0000C070784818B028C4FF6FF7707EA0426DC
:101700004FF60C7739404FF6FF7707EA03172F4360
:1017100039434FF2FF573A4046F480773A4381838A
:101720000284F0BD028B4FF2FF331A400283028B1A
:101730004FF6FF7303EA01231A4302837047F0B5A3
:101740000C461546002100220026078C4FF6EF7C40
:1017500007EA0C070784018B028C4FF6FF7707EA34
:10176000041640F6FF4739404FF6FF7707EA033784
:1017700039434FF6FF7703E00000014000040140C9
:1017800007EA052739434FF65F773A4046F01007DE
:101790003A4301830284F0BD028B4FF6F3731A4083
:1017A0000283028B0A4302837047F0B50C4615464C
:1017B00000210022068C4FF6FE773E400684018B06
:1017C000028C4FF60C7631407E1C06EA03162E433F
:1017D00031434FF6F576324044F00106324301833F
:1017E0000284F0BD70B505460C46208850B92389A7
:1017F000A28861882846FFF7D8FFE1882846FFF7CE
:10180000CBFF25E0208804280AD12389A28861889B
:101810002846FFF794FFE1882846FFF783FF17E08B
:10182000208808280AD12389A28861882846FFF7E2
:1018300055FFE1882846FFF748FF09E02389A28881
:1018400061882846FFF719FFE1882846FFF708FF5F
:1018500070BD002101804180012181800021C18073
:10186000018170472DE9F04105460C46002601270D
:10187000608808B9022600E00026A088012801D16E
:10188000022700E001272088A0B92389A288618867
:101890002846FFF78AFFE1882846FFF77DFF238966
:1018A0003A4631462846FFF74AFFE1882846FFF7C7
:1018B00039FF13E02389A28861882846FFF73FFF9C
:1018C000E1882846FFF72EFF23893A46314628460D
:1018D000FFF76BFFE1882846FFF75EFFBDE8F08168
:1018E0000146486B70470146886B70470146C86BDC
:1018F00070470146086C70470A884B881A438B88EA
:101900001A43CB881A430B891A434B891A438B8994
:101910001A43A0F844207047002101804180818053
:10192000C180018141818181704731B1B0F844208B
:1019300042F40042A0F8442005E0B0F84420C2F38D
:101940000E02A0F84420704721B1828842F00402C0
:10195000828004E082884FF6FB731A4082807047D1
:1019600021B1828842F00102828004E082884FF631
:10197000FE731A40828070471AB183890B438381BA
:1019800002E083898B4383817047818270470246DE
:101990000020138A0B400BB1012000E000207047AB
:1019A000CA430282704730B502460020002300245B
:1019B000158A05EA0103958905EA010413B10CB102
:1019C000012000E0002030BDCA430282704741EA96
:1019D0000203A0F8483070471AB183890B43838112
:1019E00002E083898B438381704721B1828842F072
:1019F0000802828004E082884FF6F7731A408280E2
:101A0000704701894FF6F8721140018170470A460C
:101A1000002101894FF68F731940114301817047EE
:101A200030B504460D4629462046FFF7F0FF2089D1
:101A300040F00700208130BD2DE9F04104460D46FD
:101A400016461F46602D06D13B46012231462046F0
:101A5000FFF775FE05E03B46012231462046FFF7C1
:101A6000A4FE29462046FFF7D2FF208940F0070058
:101A70002081BDE8F08130B50C4600210189C9B252
:101A80004FF6FF7505EA03251543254329430181D8
:101A900030BD2DE9F04105460E4617469846002414
:101AA00043463A4631462846FFF7E5FF2C894FF674
:101AB000F870044044F007044FF68F70044044F07F
:101AC00070042C81BDE8F081F0B504460D46164641
:101AD0001F463B46324629462046FFF7CCFF208969
:101AE00040F480402081F0BD82884FF68F731A4009
:101AF000828082880A438280704702894FF6F87399
:101B00001A40028102890A430281704702894FF616
:101B10007F731A40028102890A4302817047F0B53F
:101B20000C4615461E460021002200230189028B27
:101B3000038C4FF6F877394021434FF6FC473A4083
:101B400040F201173A434FF6DD773B404FF6FF77FF
:101B500007EA06172F433B43018102830384F0BD4C
:101B600021B1828842F08002828004E082884FF6B0
:101B70007F731A4082807047A0F8501070470000B1
:101B800010B50446F748844208D101211020FFF720
:101B900013F900211020FFF70FF93EE0F2488442CC
:101BA00009D101214804FFF7F6F800214FF4003075
:101BB000FFF7F1F831E0ED48844209D101218804B2
:101BC000FFF7E9F800214FF48020FFF7E4F824E064
:101BD000E748844209D10121C804FFF7DCF800215D
:101BE0004FF40020FFF7D7F817E0E248844209D10C
:101BF00001210805FFF7CFF800214FF48010FFF70F
:101C0000CAF80AE0DC48844207D101212020FFF70E
:101C1000D3F800212020FFF7CFF810BD2DE9FF47B2
:101C200005460E460024A14600BFA046B08900B17B
:101C300000BF2C8A24F44054F08804432C82AC89E1
:101C400041F20C608443B0883189084371890843AC
:101C50000443AC81AC8A24F44074B0890443AC8260
:101C60006846FEF768FFBF48854202D0C2488542F9
:101C700002D1DDF80C9001E0DDF80890A88900F4AD
:101C8000004040B109EBC90000EB09103168490080
:101C9000B0FBF1F707E009EBC90000EB0910316870
:101CA0008900B0FBF1F76420B7FBF0F004012009D4
:101CB000642101FB1078A88900F4004040B1322073
:101CC00000EBC800B0FBF1F000F00700044308E0AF
:101CD000322000EB08106421B0FBF1F000F00F009F
:101CE00004432C81BDE8FF874FF4165101600021A9
:101CF0008180C18001810C21418100218181704757
:101D000010B502460020108A20F470600B884C88C1
:101D100023438C882343CC8823431843108210BD6F
:101D20000021018041808180C180704721B182897A
:101D300042F40052828104E082894DF6FF731A401A
:101D400082817047028B02F47F420283028B0A4336
:101D50000283704721B1828942F40042828103E00C
:101D60008289C2F30E028281704721B1828A42F4D5
:101D70000062828204E0828A4FF2FF731A408282FC
:101D80007047C1F308028280704701468888C0F31B
:101D900008007047028A4FF6F0731A400282028AE6
:101DA0000A430282704721B1828942F00202828195
:101DB00004E082894FF6FD731A4082817047828960
:101DC0004FF2FF731A40828182890A4382817047F1
:101DD000028A4FF6DF731A400282028A0A430282A5
:101DE000704721B1028A42F48042028204E0028AF2
:101DF0004BF6FF731A4002827047818941F001015E
:101E00008181704721B1828A42F00802828204E017
:101E1000828A4FF6F7731A4082827047028BD2B2E1
:101E20000283028B42EA01220283704721B1828A37
:101E300042F02002828204E0828A4FF6DF731A4069
:101E40008282704721B1828A42F01002828204E0CD
:101E5000828A4FF6EF731A4082827047828A4FF669
:101E6000FB731A408282828A0A438282704721B1C0
:101E7000828A42F00202828204E0828A4FF6FD7377
:101E80001A40828270471AB1838A0B43838202E030
:101E9000838A8B4383827047F0B503460024002673
:101EA0000025002040F66A17B94200D100BF18464D
:101EB000C1F3421401F01F06012707FA06F5012CB1
:101EC00001D10C3004E0022C01D1103000E01430BC
:101ED0001AB107682F43076002E00768AF43076045
:101EE000F0BD02460020B1F5007F00D100BF13888D
:101EF0000B400BB1012000E00020704701F400729C
:101F0000B2F5007F00D100BFCA430280704770B5B0
:101F10000246002400230025002040F66A16B14244
:101F200000D100BFC1F3421501F01F03012606FADC
:101F300003F3012D02D19689334006E0022D02D130
:101F4000168A334001E0968A33400C12012606FAC5
:101F500004F41688344013B10CB1012000E00020D5
:101F600070BD0000001001400044004000480040E7
:101F7000004C0040005000400014014010B5002209
:101F8000002340F66A14A14200D100BF0A120124C6
:101F90009440A3B2DC43048010BD000010B502F0F1
:101FA000ECF9012801D003F0ACFA10BD70B504467D
:101FB0000420FEF783FB3248047025464FF47A7004
:101FC000454301202F4908804FF0E020006940F090
:101FD00002004FF0E021086108464561006940F0C9
:101FE0000100086170BD70B5034600224FF0E02685
:101FF0007569234E367803FB06F44FF0E026B1698D
:1020000010E04FF0E026B06988420BD0884202D23F
:102010000E1A324402E02E1A0E4432440146A24205
:1020200000D300E0EDE700BF70BD70B5044602F0DC
:10203000A4F9012810D013480088844206D311481F
:102040000088B4FBF0F5284601F0D9FB0D48008864
:10205000B4FBF0F100FB11444FF47A7104FB01F082
:10206000FFF7C1FF70BD30B50446002504E04FF412
:102070007A70FFF7B8FF6D1CA542F8D330BD0000A1
:10208000380000203A00002000BF704700BF4C4AD3
:10209000128802F04002002AF9D0C2B2484B9A805E
:1020A000704710B588B0044601210846FEF7D8FDF8
:1020B00001211020FEF718FE072209214148FEF7F2
:1020C00014FC07220A213F48FEF70FFC4FF4C060C2
:1020D000069002208DF81C008DF81D0000208DF860
:1020E0001E0001208DF81F0006A93648FEF772FB7E
:1020F00002940020ADF80C00ADF80E00ADF8100011
:10210000ADF814000C20ADF8120002A92C48FFF71E
:1021100085FD01212A48FFF709FE012240F22551E1
:102120002748FFF7B9FE25208DF8040003208DF81D
:1021300005008DF8060001208DF8070001A8FEF7C4
:1021400070FA08B010BD10B540F225511C48FFF7D9
:10215000DEFE10B31A48FFF718FEC4B21A48008812
:1021600000F40040C8B91848008800F4804060B10D
:102170000A2C03D000201449088020E0124800886F
:1021800040F400401049088019E00D2C06D10E489B
:10219000008840F480400C49088010E00A4800881C
:1021A000C0F30D0009490C5407480088401C06493B
:1021B000088008460088C72801DD0020088010BD7F
:1021C000001001400000024040000020C800002034
:1021D00000F1080141604FF0FF31816000F108011A
:1021E000C1600161002101607047002101617047F9
:1021F00042684A6093688B60936859609160086197
:1022000003685B1C0360704710B502460B685C1CDA
:102210000CB9106907E002F1080000E0406844686A
:1022200024689C42FAD944684C604C68A16088607C
:1022300041600A611468641C146010BD01460A699B
:10224000D1E901309860D1E90103586050688842B3
:1022500001D188685060002008611068401E10603D
:102260001068704770B505460E462C4654B900BF3D
:10227000502080F31188BFF34F8FBFF36F8F00BFE3
:1022800000BFFEE703F0FAF8D4E90F12206801FB63
:10229000020060600020A0632068A060E06B401E28
:1022A000226C216800FB0210E060FF2084F84400EB
:1022B00084F845009EB9206908B9012000E000209B
:1022C000A8B904F1100001F03FFF80B14FF0805039
:1022D000F8490860BFF34F8FBFF36F8F07E004F139
:1022E0001000FFF775FF04F12400FFF771FF03F002
:1022F000ECF8012070BD2DE9F04106460D46174669
:102300009846069C0DB9246000E02760E6632564CA
:1023100001212046FFF7A6FF84F84C80BDE8F0813C
:102320002DE9F84305460E4690460DB1012000E028
:10233000002050B900BF502080F31188BFF34F8FA9
:10234000BFF36F8F00BF00BFFEE70EB9002701E0AB
:1023500005FB06F707F1500003F095F9044644B178
:1023600004F1500943464A46314628460094FFF797
:10237000C2FF2046BDE8F88370B5044603F07EF83E
:1023800094F9455010E0606A08B9012000E000208F
:1023900038B904F1240001F0D7FE18B101F0DBFFD9
:1023A00000E003E0681E45B2002DECDC00BFFF201A
:1023B00084F8450003F089F803F060F894F944507C
:1023C00010E0206908B9012000E0002048B904F1BC
:1023D000100001F0B9FE08B101F0BDFF681E45B262
:1023E00000E001E0002DECDC00BFFF2084F8440099
:1023F00003F06BF870BD70B5054603F03FF8A86BAD
:10240000E96B884201D1012400E0002403F05DF86B
:10241000204670BD2DE9F04104460F4615464FF0A9
:102420000008A66B206C40B9206860BB606802F0B1
:102430000DF880460020606025E07DB93946226CA9
:10244000A06803F079FA216CA0680844A060D4E980
:102450000110884217D32068A06014E03946226C2E
:10246000E06803F069FA216CE068401AE0602168D6
:10247000E068884203D2216C6068401AE060022D57
:1024800001D106B1761E701CA0634046BDE8F08104
:102490002DE9FF4383B0064688461D464FF00009EC
:1024A000344654B900BF502080F31188BFF34F8FDA
:1024B000BFF36F8F00BF00BFFEE7B8F1000F01D17F
:1024C000206C08B9012000E0002050B900BF502066
:1024D00080F31188BFF34F8FBFF36F8F00BF00BF32
:1024E000FEE7022D02D1E06B012801D1012000E0BE
:1024F000002050B900BF502080F31188BFF34F8FE8
:10250000BFF36F8F00BF00BFFEE701F036FF08B9D1
:10251000059808B9012000E0002050B900BF502004
:1025200080F31188BFF34F8FBFF36F8F00BF00BFE1
:10253000FEE700BF02F0A2FFA06BE16B884201D36F
:10254000022D28D12A4641462046FFF763FF074661
:10255000606A08B9012000E0002068B904F1240095
:1025600001F0F2FD88B14FF0805052490860BFF38E
:102570004F8FBFF36F8F08E03FB14FF080504D4950
:102580000860BFF34F8FBFF36F8F02F09EFF0120F3
:1025900007B0BDE8F083059818B902F096FF002057
:1025A000F6E7B9F1000F04D101A801F08BFE4FF05E
:1025B000010902F08AFF01F0B8F802F05FFF94F918
:1025C0004400401C10B9002084F8440094F94500F0
:1025D000401C10B9002084F8450002F076FF05A9E0
:1025E00001A801F076FEF0B92046FFF704FFA0B184
:1025F00004F11000059901F03DFD2046FFF7BCFEF7
:1026000000F0E5FF002895D14FF08050294908607F
:10261000BFF34F8FBFF36F8F8CE72046FFF7ACFE01
:1026200000F0D5FF86E72046FFF7A6FE00F0CFFFBB
:102630000020ADE710B504464CB10020606020607A
:10264000E06000231A4619462046FFF721FF10BD1F
:102650002DE9F041044601260027224600210120F1
:10266000FFF75EFE05462846FFF7E4FF2846BDE873
:10267000F08170B505462C4654B900BF502080F358
:102680001188BFF34F8FBFF36F8F00BF00BFFEE70E
:1026900001F070FE616888420ED1E068401EE06083
:1026A000E06828B900231A4619462046FFF7F0FED5
:1026B000012602E004ED00E00026304670BD014630
:1026C0004A6A22B10A6B1268C2F1050000E00020DC
:1026D000704770B5054602F0D1FEA86B08B9012419
:1026E00000E0002402F0F1FE204670BD2DE9F34128
:1026F00082B005464FF000082C46002654B900BFB2
:10270000502080F31188BFF34F8FBFF36F8F00BF4E
:1027100000BFFEE7206C08B9012000E0002050B99E
:1027200000BF502080F31188BFF34F8FBFF36F8F2E
:1027300000BF00BFFEE701F020FE08B9039808B90A
:10274000012000E0002050B900BF502080F3118824
:10275000BFF34F8FBFF36F8F00BF00BFFEE700BF17
:1027600002F08CFEA76BFFB1781EA063206810B941
:1027700002F032F86060206908B9012000E0002012
:1027800060B904F1100001F0DFFC38B14FF0805067
:10279000F8490860BFF34F8FBFF36F8F02F095FECB
:1027A000012004B0BDE8F081039898B90EB901206A
:1027B00000E0002050B900BF502080F31188BFF323
:1027C0004F8FBFF36F8F00BF00BFFEE702F07DFEAB
:1027D0000020E6E7B8F1000F04D1684601F072FD71
:1027E0004FF0010802F071FE00F09FFF02F046FE7C
:1027F00094F94400401C10B9002084F8440094F976
:102800004500401C10B9002084F8450002F05DFE30
:1028100003A9684601F05DFD40BB2046FFF759FF64
:10282000F0B1206838B902F029FE606801F0B1FD0E
:10283000064602F04AFE04F12400039901F01AFC56
:102840002046FFF799FD00F0C2FE002888D14FF026
:102850008050C8490860BFF34F8FBFF36F8F7FE789
:102860002046FFF789FD00F0B2FE79E72046FFF72A
:1028700083FD00F0ACFE2046FFF72BFF0028EED0D2
:102880005EB102F0FBFD2046FFF719FF074639460F
:10289000606801F039FE02F018FE002081E72DE9A2
:1028A000F04106460F46344654B900BF502080F32D
:1028B0001188BFF34F8FBFF36F8F00BF00BFFEE7DC
:1028C00001F058FD6168884204D1E068401CE06076
:1028D000012508E039462046FFF708FF054615B1F7
:1028E000E068401CE0602846BDE8F08170B5054610
:1028F0000E460DB1012000E0002050B900BF50206D
:1029000080F31188BFF34F8FBFF36F8F00BF00BFFD
:10291000FEE7AE4201D8012000E0002050B900BF20
:10292000502080F31188BFF34F8FBFF36F8F00BF2C
:1029300000BFFEE7022200212846FFF7F1FC044613
:1029400004B1A663204670BD2DE9F05F07468A46B4
:1029500090461E463C4654B900BF502080F3118873
:10296000BFF34F8FBFF36F8F00BF00BFFEE7BAF119
:10297000000F01D1206C08B9012000E0002050B9FF
:1029800000BF502080F31188BFF34F8FBFF36F8FCC
:1029900000BF00BFFEE7022E02D1E06B012801D18B
:1029A000012000E0002050B900BF502080F31188C2
:1029B000BFF34F8FBFF36F8F00BF00BFFEE702F082
:1029C000B8FD00BF5021EFF3118081F31188BFF3F0
:1029D0004F8FBFF36F8F00BF0546A06BE16B88423E
:1029E00001D3022E23D194F945B0324651462046F8
:1029F000FFF710FD0BF1010088B9606A08B90120EA
:102A000000E0002080B904F1240001F09DFB58B1E2
:102A1000B8F1000F08D00120C8F8000004E00BF165
:102A2000010040B284F845004FF0010901E04FF089
:102A3000000900BF85F3118800BF4846BDE8F09F3C
:102A40002DE9F04706460F46344654B900BF5020E2
:102A500080F31188BFF34F8FBFF36F8F00BF00BFAC
:102A6000FEE7206C08B9012000E0002050B900BF4B
:102A7000502080F31188BFF34F8FBFF36F8F00BFDB
:102A800000BFFEE7206808B9606808B9012000E0CF
:102A9000002050B900BF502080F31188BFF34F8F42
:102AA000BFF36F8F00BF00BFFEE702F042FD00BF23
:102AB0005021EFF3118081F31188BFF34F8FBFF3E3
:102AC0006F8F00BF0546D4F83890E06B48451ED99B
:102AD00094F945A009F10100A0630AF1010070B961
:102AE000606A08B9012000E0002068B904F1240000
:102AF00001F02AFB40B13FB10120386004E00AF147
:102B0000010040B284F845004FF0010801E04FF0A9
:102B1000000800BF85F3118800BF4046BDE8F0877C
:102B200070B504460D46206C70B1216CE068084415
:102B3000E0606168E068884201D32068E060284670
:102B4000226CE16802F0F8FE70BD2DE9F74183B018
:102B500005460E464FF000082C466CB900BF5020C9
:102B600080F31188BFF34F8FBFF36F8F00BF00BF9B
:102B7000FEE7000004ED00E00EB9206C08B901206A
:102B800000E0002050B900BF502080F31188BFF34F
:102B90004F8FBFF36F8F00BF00BFFEE701F0EDFB6B
:102BA00008B9059808B9012000E0002050B900BF1D
:102BB000502080F31188BFF34F8FBFF36F8F00BF9A
:102BC00000BFFEE700BF02F059FCA76BF7B131462A
:102BD0002046FFF7A5FF781EA063206908B90120F1
:102BE00000E0002060B904F1100001F0ADFA38B146
:102BF0004FF08050FA490860BFF34F8FBFF36F8FDB
:102C000002F063FC012006B0BDE8F081059818B918
:102C100002F05BFC0020F6E7B8F1000F04D101A838
:102C200001F050FB4FF0010802F04FFC00F07DFD79
:102C300002F024FC94F94400401C10B9002084F8F0
:102C4000440094F94500401C10B9002084F8450068
:102C500002F03BFC05A901A801F03BFBF0B92046BE
:102C6000FFF737FDA0B104F12400059901F002FA45
:102C70002046FFF781FB00F0AAFC0028A3D14FF00B
:102C80008050D7490860BFF34F8FBFF36F8F9AE72B
:102C90002046FFF771FB00F09AFC94E72046FFF70F
:102CA0006BFB00F094FC2046FFF713FD00288AD050
:102CB0000020A8E72DE9F74382B005460E464FF005
:102CC00000082C4654B900BF502080F31188BFF390
:102CD0004F8FBFF36F8F00BF00BFFEE70EB9206CB0
:102CE00008B9012000E0002050B900BF502080F357
:102CF0001188BFF34F8FBFF36F8F00BF00BFFEE798
:102D000001F03BFB08B9049808B9012000E000205D
:102D100050B900BF502080F31188BFF34F8FBFF32D
:102D20006F8F00BF00BFFEE700BF02F0A7FBD4F823
:102D30003890B9F1000F1ED0E76831462046FFF702
:102D4000EFFEE760606A08B9012000E0002060B98A
:102D500004F1240001F0F8F938B14FF08050A04997
:102D60000860BFF34F8FBFF36F8F02F0AEFB0120FF
:102D700005B0BDE8F083049818B902F0A6FB002066
:102D8000F6E7B8F1000F04D1684601F09BFA4FF066
:102D9000010802F09AFB00F0C8FC02F06FFB94F906
:102DA0004400401C10B9002084F8440094F9450008
:102DB000401C10B9002084F8450002F086FB04A9ED
:102DC000684601F086FAF0B92046FFF782FCA0B110
:102DD00004F12400049901F04DF92046FFF7CCFAE4
:102DE00000F0F5FB0028A0D14FF080507C4908602E
:102DF000BFF34F8FBFF36F8F97E72046FFF7BCFA03
:102E000000F0E5FB91E72046FFF7B6FA00F0DFFBA4
:102E10002046FFF75EFC002887D00020A8E72DE9B8
:102E2000F05F064689461746344654B900BF502025
:102E300080F31188BFF34F8FBFF36F8F00BF00BFC8
:102E4000FEE7B9F1000F01D1206C08B9012000E0C4
:102E5000002050B900BF502080F31188BFF34F8F7E
:102E6000BFF36F8F00BF00BFFEE702F062FB00BF41
:102E70005021EFF3118081F31188BFF34F8FBFF31F
:102E80006F8F00BF0546D4F838A0BAF1000F22D0EA
:102E900094F944B049462046FFF742FEAAF10100EA
:102EA000A0630BF1010070B9206908B9012000E0AE
:102EB000002068B904F1100001F046F940B13FB1BB
:102EC0000120386004E00BF1010040B284F84400B6
:102ED0004FF0010801E04FF0000800BF85F31188B2
:102EE00000BF4046BDE8F09F2DE9F0470646884602
:102EF000344654B900BF502080F31188BFF34F8F80
:102F0000BFF36F8F00BF00BFFEE7B8F1000F01D124
:102F1000206C08B9012000E0002050B900BF50200B
:102F200080F31188BFF34F8FBFF36F8F00BF00BFD7
:102F3000FEE7206C08B1012000E0002050B900BF7E
:102F4000502080F31188BFF34F8FBFF36F8F00BF06
:102F500000BFFEE702F0EDFA00BF5021EFF3118051
:102F600081F31188BFF34F8FBFF36F8F00BF05460A
:102F7000A06B48B1D4F80C9041462046FFF7D0FD35
:102F8000C4F80C90012700E0002700BF85F31188EA
:102F900000BF3846BDE8F08770B5044654B900BF9D
:102FA000502080F31188BFF34F8FBFF36F8F00BFA6
:102FB00000BFFEE702F062FAA56B02F086FA28462F
:102FC00070BD70B50446254665B900BF502080F33A
:102FD0001188BFF34F8FBFF36F8F00BF00BFFEE7B5
:102FE00004ED00E002F04AFAD5E90E10461A02F0AC
:102FF0006CFA304670BD014651B900BF502282F3D1
:103000001188BFF34F8FBFF36F8F00BF00BFFEE784
:10301000886B7047014600200EE0524A02EBC00266
:1030200052688A4207D100224E4B43F8302003EB0E
:10303000C0035A6002E0401C0828EED300BF70476E
:1030400070B50446254655B900BF502080F311885D
:10305000BFF34F8FBFF36F8F00BF00BFFEE728465F
:10306000FFF7D8FF284602F0A2FB70BD0146886C2E
:10307000704781647047014691F84C0070470146E3
:1030800051B900BF502282F31188BFF34F8FBFF3B5
:103090006F8F00BF00BFFEE78A6B0AB9012000E016
:1030A00000207047014651B900BF502282F31188B9
:1030B000BFF34F8FBFF36F8F00BF00BFFEE78A6B78
:1030C000CB6B9A4201D1012000E0002070470246FC
:1030D00000200BE0234B53F8303033B9214B43F839
:1030E000301003EBC0035A6002E0401C0828F1D303
:1030F00000BF70470246002000210AE0194B03EB95
:10310000C1035B68934203D1164B53F8310002E0D0
:10311000491C0829F2D300BF70472DE9F04105464C
:103120000E4617462C4602F0A9F994F94400401CBB
:1031300010B9002084F8440094F94500401C10B9EF
:10314000002084F8450002F0C0F9A06B28B93A4687
:10315000314604F1240000F0D9FF2046FFF70CF9B6
:10316000BDE8F0819001002010B5002407E004EBD9
:103170008401FD4A02EB8100FFF72AF8641C052C4C
:10318000F5D3FA48FFF724F8F948FFF721F8F94892
:10319000FFF71EF8F848FFF71BF8F848FFF718F894
:1031A000F248F7490860F248F649086010BD10B5CA
:1031B000044602F063F9F4480068401CF2490860D4
:1031C000F248006840B9F1480460084600680128E8
:1031D0000DD1FFF7C9FF0AE0ED48006838B9EB48A8
:1031E0000068C06AE16A884201D8E8480460E9489A
:1031F0000068401CE749086008460068206494F8AD
:103200002C1001208840E44909680843E24908601D
:10321000E16A01EB8101D44A02EB8100211DFEF736
:10322000E7FF02F052F9DA48006868B1D748006851
:10323000C06AE16A884207D24FF08050D7490860DF
:10324000BFF34F8FBFF36F8F10BD2DE9F05F824644
:103250000F4690469B460A9E0C9C4FEA8801A52289
:10326000206B02F07BFBA8F10100216B01EB8009D0
:1032700029F0070909F0070008B9012000E0002043
:1032800050B900BF502080F31188BFF34F8FBFF3B8
:103290006F8F00BF00BFFEE7002507E0795D04F1F6
:1032A00034004155785D00B902E06D1C0A2DF5D35C
:1032B00000BF00213D200155052E00D30426E66203
:1032C000A6640020E064201DFEF78FFF04F11800C3
:1032D000FEF78BFF2461C6F10500A0616462002047
:1032E0002065606584F858005A465146484601F00A
:1032F000D1FF20600B9808B10B980460BDE8F09FE7
:103300002DE9FF4F85B0804689461746DDE912ABAF
:10331000B80002F0B8F9064656B15C2002F0B3F9E5
:1033200004460CB1266304E0304602F040FA00E0A7
:1033300000247CB10020CDE900ABCDE902403A4643
:1033400049464046089BFFF780FF2046FFF72FFFC6
:10335000012501E04FF0FF35284609B0BDE8F08FA8
:1033600087490968096809B9012100E0002121B1F4
:103370004FF0FF318A4A116006E081490968C96847
:10338000C868874A41681160704710B50446206BD1
:1033900002F00DFA204602F00AFA10BD70B505469B
:1033A00002F06CF815B97948006800E02846044638
:1033B000201DFEF743FF78B9E06A00EB80006A4900
:1033C00051F8200040B994F82C100120884072492F
:1033D0000968814370480160A06A18B104F11800BF
:1033E000FEF72CFF6B480068401C6A49086067487C
:1033F0000068844209D1211D5F48FEF7F9FE694843
:103400000068401C6749086009E05F480068401E8A
:103410005D4908602046FFF7B8FFFFF7A1FF02F003
:1034200054F85B480068E8B158480068844219D1F4
:103430005D48006808B9012000E0002050B900BFD5
:10344000502080F31188BFF34F8FBFF36F8F00BF01
:1034500000BFFEE74FF0805050490860BFF34F8F28
:10346000BFF36F8F70BD2DE9F0414FF000084E485B
:103470000068002876D14D480068451C4B4805601F
:1034800015BB3F480068006808B9012000E0002033
:1034900050B900BF502080F31188BFF34F8FBFF3A6
:1034A0006F8F00BF00BFFEE73548076835480068EA
:1034B00033490860334807603D480068401C3C4978
:1034C0000860FFF74DFF00BF3548006885423CD3D8
:1034D00000BF2B480068006808B9012000E0002008
:1034E00020B14FF0FF302E4908602DE024480068DD
:1034F000C068C4686668B54202D22948066023E005
:10350000201DFEF79BFEA06A18B104F11800FEF71B
:1035100095FE94F82C10012088401F490968084343
:103520001D490860E16A01EB81010F4A02EB81004D
:10353000211DFEF75DFE1549E06A0968C96A8842E7
:10354000C7D34FF00108C4E700BF10480068C06A45
:1035500000EB8000044951F82000012801D94FF008
:1035600001082CE026E00000D001002034020020F9
:10357000480200205C02002070020020840200202B
:10358000480000204C00002054000020440000208F
:1035900060000020700000205C00002004ED00E0CE
:1035A00074000020500000207C0000205800002003
:1035B0006C000020FE480068401CFD490860FD4882
:1035C000006808B14FF001084046BDE8F08170B5D1
:1035D00000240026F848006850B900BF502080F34E
:1035E0001188BFF34F8FBFF36F8F00BF00BFFEE79F
:1035F00001F044FFF0480068401EEF4908600846AB
:10360000006800284FD1ED48006800284BD024E026
:10361000EB48C068C46804F11800FEF70FFE201DD7
:10362000FEF70CFE94F82C1001208840E54909684B
:103630000843E4490860E16A01EB8101E24A02EBD8
:103640008100211DFEF7D4FDE049E06A0968C96ADE
:10365000884202D30120D7490860D948006808B9D8
:10366000012000E000200028D2D00CB1FFF778FE46
:10367000CF48056865B100BFFFF7F5FE10B1012026
:10368000CC4908606D1E002DF6D10020C8490860A5
:10369000C848006838B101263007CD490860BFF33B
:1036A0004F8FBFF36F8F01F010FF304670BD2DE9D3
:1036B000F04105460E46C7480768C4480068001D2B
:1036C000FEF7BCFD50B9C148006890F82C100120ED
:1036D0008840BC4909688143BA480160681C38B910
:1036E00036B1BA480168091DBB48FEF781FD1AE0F2
:1036F0007C19B64800684460BC4207D2B3480168F0
:10370000091DB6480068FEF77FFD0CE0AF48016870
:10371000091DB3480068FEF777FDB248006884428F
:1037200001D2B0480460BDE8F081A3480068401CA5
:10373000A149086070472DE9F04704460F464FF055
:10374000000954B900BF502080F31188BFF34F8F98
:10375000BFF36F8F00BF00BFFEE70FB1012000E095
:10376000002050B900BF502080F31188BFF34F8F65
:10377000BFF36F8F00BF00BFFEE78F48006808B936
:10378000012000E0002050B900BF502080F31188D4
:10379000BFF34F8FBFF36F8F00BF00BFFEE7FFF790
:1037A000C4FF8C4806682068C5192068B04207D954
:1037B0002068A8420BD9B54209D94FF0010906E0AB
:1037C0002068A84201D8B54201D94FF0010925600F
:1037D000B9F1000F03D0A81B0021FFF768FFFFF726
:1037E000F6FE8046B8F1000F07D14FF080507849BF
:1037F0000860BFF34F8FBFF36F8FBDE8F08770B5E0
:1038000004460025D4B16C48006808B9012000E0E6
:10381000002050B900BF502080F31188BFF34F8FB4
:10382000BFF36F8F00BF00BFFEE7FFF77EFF0021F1
:103830002046FFF73CFFFFF7CAFE05463DB94FF0B3
:10384000805063490860BFF34F8FBFF36F8F70BD27
:103850002DE9F04107463E4656B900BF502080F39F
:103860001188BFF34F8FBFF36F8F00BF00BFFEE71C
:1038700056480068864201D100241EE001F0FEFD9A
:10388000756901F022FE56480068854203D053480E
:103890000068854201D102240FE04F48854205D1DE
:1038A000B06A08B9032408E0022406E04E488542C5
:1038B00000D00DB9042400E001242046BDE8F081C9
:1038C00070B5044601F0DAFD14B94048006800E024
:1038D00020460646F56A01F0F8FD284670BD2DE940
:1038E000F041054601F025FE00BF5021EFF31180A5
:1038F00081F31188BFF34F8FBFF36F8F00BF044672
:1039000015B93248006800E028460746FE6A00BF45
:1039100084F3118800BF3046BDE8F0812DE9F047FF
:1039200080460D464FF00009052D01D2012000E030
:10393000002050B900BF502080F31188BFF34F8F93
:10394000BFF36F8F00BF00BFFEE7052D00D3042536
:1039500001F094FDB8F1000F02D11C48006800E0AE
:1039600040460446A66CAE4275D0B5420BD9174806
:10397000006884420DD015480068C06AA84208D883
:103980004FF0010905E011480068844201D14FF071
:103990000109E76AE16AA06C884200D1E562A5648A
:1039A000A06900F0004010B9C5F10500A0611DE05C
:1039B00064000020680000207C00002054000020EB
:1039C0005C0200205C000020D001002044000020A8
:1039D00004ED00E058000020840200204C0000208C
:1039E00048000020740000207002002007EB8701CF
:1039F000FE4A02EB81016069884201D1012000E0AA
:103A00000020E0B1201DFEF719FC30B90120B840BC
:103A1000F74909688143F648016094F82C100120A9
:103A20008840F34909680843F1490860E16A01EBFD
:103A30008101EE4A02EB8100211DFEF7D9FBB9F1AD
:103A4000000F07D04FF08050EA490860BFF34F8F56
:103A5000BFF36F8F00BF01F038FDBDE8F087E64887
:103A6000006818B10120E54908604DE00020E349F5
:103A70000860E34908684968E24908600846006848
:103A8000E149096888420BD9E049096801F1500011
:103A90000A6DDC490968DC4B1B68C91A11440160D6
:103AA000D8480068D8490860D1480068B0FA80F06A
:103AB000C0F11F0101EB8100CC4A52F8200008B18F
:103AC000012000E0002050B900BF502080F3118891
:103AD000BFF34F8FBFF36F8F00BF00BFFEE701EB57
:103AE0008102C24B03EB820042685268426000F1DF
:103AF00008024368934202D14268526842604268B9
:103B0000D268C24B1A6000BF704770B5054601F01D
:103B1000B5FC15B9BD48006800E028460446201DE4
:103B2000FEF78CFB78B9E06A00EB8000AF4951F8F2
:103B3000200040B994F82C1001208840AC49096855
:103B40008143AB480160A06A18B104F11800FEF788
:103B500075FB211DAE48FEF74BFB94F85800012879
:103B600002D1002084F8580001F0AFFCA948006899
:103B700028B101F083FCFFF7F3FB01F0A6FCA3489A
:103B80000068844229D1A3480068D0B19A480068EF
:103B900008B9012000E0002050B900BF502080F398
:103BA0001188BFF34F8FBFF36F8F00BF00BFFEE7D9
:103BB0004FF080508F490860BFF34F8FBFF36F8F76
:103BC0000BE09348006894490968884203D10020BB
:103BD0008E49086001E0FFF742FF70BD10B5024654
:103BE0000020114652B900BF502383F31188BFF360
:103BF0004F8FBFF36F8F00BF00BFFEE7844C4B6950
:103C0000A34201D1012300E0002373B1834C8B6AEE
:103C1000A34201D1012300E0002333B98B6A0BB921
:103C2000012300E0002303B1012010BD70B505465B
:103C30002C4655B900BF502080F31188BFF34F8F39
:103C4000BFF36F8F00BF00BFFEE774B36F4800681B
:103C500084422AD001F012FC2046FFF7BFFF10B3C8
:103C6000201DFEF7EBFA94F82C10012088406049E3
:103C7000096808435E490860E16A01EB81015B4A1B
:103C800002EB8100211DFEF7B3FA6049E06A096882
:103C9000C96A884207D34FF0805056490860BFF385
:103CA0004F8FBFF36F8F01F010FC70BD2DE9F04115
:103CB00006460027344656B900BF502080F31188CD
:103CC000BFF34F8FBFF36F8F00BF00BFFEE701F060
:103CD00030FC00BF5021EFF3118081F31188BFF356
:103CE0004F8FBFF36F8F00BF05462046FFF776FF6B
:103CF00020B341480068E0B94449E06A0968C96AEC
:103D0000884200D30127201DFEF798FA94F82C1062
:103D10000120884036490968084335490860E16A4E
:103D200001EB8101314A02EB8100211DFEF760FAAF
:103D300004E004F118013948FEF75AFA00BF85F390
:103D4000118800BF3846BDE8F08110B516E001F0DB
:103D500095FB3348C068C468201DFEF76FFA2E48F3
:103D60000068401E2C4908602E480068401E2D49FE
:103D7000086001F0AAFB2046FFF707FB294800680E
:103D80000028E4D110BD00BFFFF7DFFF174800682F
:103D90000128F9D94FF0805016490860BFF34F8FC2
:103DA000BFF36F8FF0E71CB51F4800210B4682223E
:103DB000CDE900101DA11F48FFF7A2FA0446012C0F
:103DC00002D101F03AF90446012C40D100BF502045
:103DD00080F31188BFF34F8FBFF36F8F00BF4FF099
:103DE000FF301549086001200A4927E0D001002072
:103DF0005C00002004ED00E07C0000206800002052
:103E0000C00000208400002080000020440000202A
:103E10008402002060000020540000205C0200208A
:103E200070020020500000207800002049444C45DA
:103E300000000000873D000874000020086000209A
:103E4000FE49086001F054FD01F049FA10E0601CE1
:103E500008B1012000E0002050B900BF502080F3DD
:103E60001188BFF34F8FBFF36F8F00BF00BFFEE716
:103E70001CBD10B500BF502080F31188BFF34F8FD9
:103E8000BFF36F8F00BF0020ED49086001F0E1FA39
:103E900010BDEA490868704770B501F04AFB00257B
:103EA000E6480468204670BDE64800687047014651
:103EB00011B9E548006800E00846024652B900BF63
:103EC000502080F31188BFF34F8FBFF36F8F00BF77
:103ED00000BFFEE702F1340070470246002101E016
:103EE000521C491C1078A528FAD0890888B270475E
:103EF0002DE9F04107460C4690461E4617B9D248B8
:103F0000006800E038460546256005F13400606031
:103F1000E86A2061286BE061286CA060A86C606191
:103F2000286DA061052E12D0C7480068854202D1D5
:103F3000002020730FE02673032E0CD1FFF7F5FB52
:103F4000A86A08B102202073FFF741FB03E028466E
:103F5000FFF77EFC2073B8F1000F04D0286BFFF749
:103F6000BCFF208401E000202084BDE8F0812DE921
:103F7000F04707460C4690460026206848B3204686
:103F800041684968416000F1080142688A4202D1F3
:103F90004168496841604168D1F80C9000BF2046F3
:103FA00041684968416000F1080142688A4202D1D3
:103FB0004168496841604168CD6806EBC60007EB7F
:103FC0008001434601222846FFF792FF761C4D45AB
:103FD000E5D13046BDE8F0872DE9F0410546884639
:103FE000164600240527FFF7A0FB96480068804589
:103FF0003BD300BF7F1E07EB8702944B03EB82018C
:1040000004EBC40205EB82000122FFF7B0FF044479
:10401000002FEFD104EBC40105EB810002228C4993
:104020000968FFF7A4FF044404EBC40105EB810019
:10403000022288490968FFF79AFF044404EBC4018F
:1040400005EB810004228449FFF791FF044404EB4F
:10405000C40105EB810003228049FFF788FF044477
:104060001EB17F49086849683060FFF7B0FA204602
:10407000BDE8F08170B504460D4654B900BF50202C
:1040800080F31188BFF34F8FBFF36F8F00BF00BF66
:10409000FEE76D48016818312046FEF7B5F80121AA
:1040A0002846FFF704FB70BD70B504460D46164662
:1040B00054B900BF502080F31188BFF34F8FBFF376
:1040C0006F8F00BF00BFFEE76648006808B101209F
:1040D00000E0002050B900BF502080F31188BFF3EA
:1040E0004F8FBFF36F8F00BF00BFFEE745F000406A
:1040F0005549096888615448016818312046FEF71F
:1041000077F801213046FFF7D2FA70BD70B5054649
:104110000E46144655B900BF502080F31188BFF3F6
:104120004F8FBFF36F8F00BF00BFFEE746480168A7
:1041300018312846FEF75CF80CB14FF0FF362146E7
:104140003046FFF7B4FA70BD70B50646F068C46833
:1041500054B900BF502080F31188BFF34F8FBFF3D5
:104160006F8F00BF00BFFEE704F11800FEF766F88E
:104170003C480068A8B9201DFEF760F894F82C10A0
:104180000120884038490968084337490860E16AD6
:1041900001EB81012D4A02EB8100211DFEF728F879
:1041A00004E004F118013148FEF722F82649E06ADC
:1041B0000968C96A884204D9012501202C49086090
:1041C00000E00025284670BD70B505460E4625481E
:1041D000006808B1012000E0002050B900BF502065
:1041E00080F31188BFF34F8FBFF36F8F00BF00BF05
:1041F000FEE746F000402860EC6854B900BF50204C
:1042000080F31188BFF34F8FBFF36F8F00BF00BFE4
:10421000FEE72846FEF712F8201DFEF70FF894F887
:104220002C10012088401049096808430E49086095
:10423000E16A01EB8101054A1CE000005800002002
:10424000600000205400002044000020D001002025
:10425000480000204C000020700200208402002052
:10426000C00000207C0000205C0000205C020020D8
:104270006800002002EB8100211DFDF7B9FFFB491A
:10428000E06A0968C96A884202D90120F8490860D1
:1042900070BD10B5044654B900BF502080F311889A
:1042A000BFF34F8FBFF36F8F00BF00BFFEE701F07A
:1042B000E5F8F04800682060EF480068606001F0B1
:1042C00004F910BDEB4909680160EB4909684160D8
:1042D000704770B505460C4655B900BF502080F3B5
:1042E0001188BFF34F8FBFF36F8F00BF00BFFEE792
:1042F00054B900BF502080F31188BFF34F8FBFF334
:104300006F8F00BF00BFFEE701F0B8F8DA4802681F
:104310006868131A2068401C08B9002617E0D549C0
:1043200028680968884204D06868904201D801264C
:104330000DE02068984207D92068C01A20602846FE
:10434000FFF7C0FF002602E000202060012601F0F8
:10435000BCF8304670BD0120C54908607047014671
:1043600011B10A46506C00E00020704708B10246C7
:1043700051647047BD4908687047C049096809B968
:10438000012005E0BE49096809B9022000E00020CB
:10439000704770B505462C460026002D54D0B34911
:1043A000E06A0968C96A884247D2A06900F0004003
:1043B00028B9AE480068C06AC0F10500A061E16A92
:1043C00001EB8101AF4A02EB81016069884201D1B2
:1043D000012000E0002050B3201DFDF72FFF78B929
:1043E000E06A00EB8000A74951F8200040B994F83A
:1043F0002C1001208840A44909688143A24801602B
:104400009A480068C06AE06294F82C100120884045
:104410009D49096808439C490860E16A01EB8101F4
:10442000984A02EB8100211DFDF7E2FE03E08F4870
:104430000068C06AE062012606E08C49A06C096849
:10444000C96A884200D20126304670BD70B5054663
:104450002C460026002D55D084480068844201D1A6
:10446000012000E0002050B900BF502080F31188E7
:10447000BFF34F8FBFF36F8F00BF00BFFEE7E06C4D
:1044800050B900BF502080F31188BFF34F8FBFF3A6
:104490006F8F00BF00BFFEE7E06C401EE064A16CC0
:1044A000E06A88422ED0E06C60BB201DFDF7C6FE9E
:1044B00078B9E06A00EB8000724951F8200040B9F9
:1044C00094F82C10012088406F49096881436E4898
:1044D0000160A06CE062E06AC0F10500A06194F8A0
:1044E0002C10012088406849096808436649086023
:1044F000E16A01EB8101634A02EB8100211DFDF7B6
:1045000077FE0126304670BD2DE9F04706460F467E
:1045100034464FF00109002E67D0E06C50B900BF5F
:10452000502080F31188BFF34F8FBFF36F8F00BF10
:1045300000BFFEE7A06CB84201D23D4600E0A56C8A
:10454000E06AA84251D0E06C01284ED1474800688B
:10455000844201D0012000E0002050B900BF50206B
:1045600080F31188BFF34F8FBFF36F8F00BF00BF81
:10457000FEE7D4F82C80E562A06900F0004010B995
:10458000C5F10500A06108EB88013E4A02EB8101FC
:104590006069884201D1012000E0002028B3201D7D
:1045A000FDF74CFE78B9E06A00EB8000354951F820
:1045B000200040B994F82C10012088403249096845
:1045C00081433148016094F82C10012088402E4925
:1045D000096808432C490860E16A01EB8101294A16
:1045E00002EB8100211DFDF703FEBDE8F08770B5E9
:1045F00005460E463146284601F0C9F9284601F025
:10460000BFF9044602E020202855641C092CFAD387
:1046100000202855281970BD7FB505460020287058
:104620001A48006803901949096801EBC101880024
:1046300001F029F80446002C66D000222046039998
:10464000FFF7CAFC03900020029056E0029800EBAE
:10465000C00004EB8000007B012819D0022819D08B
:10466000032819D004281BD118E0000044000020C2
:10467000680000206C00002058000020600000202E
:104680007C000020D00100205C00002054000020AD
:10469000522607E0422605E0532603E0442601E0C7
:1046A000002600BF00BF029800EBC00004EB8000B2
:1046B00041682846FFF79BFF0546029800EBC000C3
:1046C00004EB80008068029901EBC10104EB8101D9
:1046D000098CCDE90010029800EBC00004EB8000CB
:1046E0003246FDA10369284601F092F9284601F0FF
:1046F00047F905440298401C0290DDE90201884216
:10470000A4D3204601F053F87FBDFEB50546002036
:104710002870F54800680290F349096801EBC1016F
:10472000880000F0B0FF0446002C48D06A462046BE
:104730000299FFF751FC029064210098B0FBF1F060
:1047400000900098002837D00020019030E00198B8
:1047500000EBC00004EB800080690099B0FBF1F62B
:10476000019800EBC00004EB800041682846FFF789
:104770003EFF05465EB1019800EBC00004EB8000EF
:104780003346DAA18269284601F042F909E001982E
:1047900000EBC00004EB8000D7A18269284601F03D
:1047A00037F9284601F0ECF805440198401C0190C7
:1047B000DDE901018842CAD3204600F0F8FFFEBDC2
:1047C000D04909688869CF490968C96AC1F10501FA
:1047D000CC4A126891617047CA48006830B1C94933
:1047E000096801F14C00C96C491C0160C5480068AA
:1047F000704770B506460D4600F040FEC14800689F
:10480000406D88B90120BF49096881F858005DB141
:1048100001212846FEF74BFF4FF08050BA4908604F
:10482000BFF34F8FBFF36F8F00F04FFE00F026FEF7
:10483000B4480068446D4CB126B10020B149096804
:10484000486503E0601EAF49096848650020AD492E
:10485000096881F8580000F038FE204670BD2DE947
:10486000F0410746884614461D4600F007FEA5485D
:10487000006890F85800022818D0A249096801F190
:104880005400496DB943016001209E49096881F8CF
:1048900058005DB101212846FEF709FF4FF0805016
:1048A00099490860BFF34F8FBFF36F8F00F00DFE83
:1048B00000F0E4FD1CB193480068406D2060914811
:1048C000006890F85800022801D0002608E08D49C1
:1048D000096801F15400496D21EA080101600126CF
:1048E00000208849096881F8580000F0EEFD304644
:1048F000BDE8F0812DE9F04706460D46174698467B
:104900004FF0010A56B900BF502080F31188BFF361
:104910004F8FBFF36F8F00BF00BFFEE7344600F03C
:10492000ADFDB8F1000F02D0606DC8F8000094F83A
:104930005890022084F85800052F17D2DFE807F0BE
:104940001503070B0D00606D284360650EE0606D78
:10495000401C60650AE0656508E0B9F1020F01D00E
:10496000656501E04FF0000A00E000BF00BFB9F14B
:10497000010F33D1201DFDF761FC94F82C100120AC
:10498000884062490968084360490860E16A01EBB0
:1049900081015F4A02EB8100211DFDF729FCA06A1D
:1049A00008B9012000E0002050B900BF502080F37A
:1049B0001188BFF34F8FBFF36F8F00BF00BFFEE7BB
:1049C0005049E06A0968C96A884207D94FF08050A7
:1049D0004D490860BFF34F8FBFF36F8F00F075FD37
:1049E0005046BDE8F0872DE9F84F07460E46904641
:1049F0009946DDF828B00120009057B900BF50203B
:104A000080F31188BFF34F8FBFF36F8F00BF00BFDC
:104A1000FEE700F08EFD3C4600BF5021EFF3118011
:104A200081F31188BFF34F8FBFF36F8F00BF05462F
:104A3000B9F1000F02D0606DC9F8000094F858A0D9
:104A4000022084F85800B8F1050F17D2DFE808F00B
:104A50001503070B0D00606D304360650EE0606D5F
:104A6000401C60650AE0666508E0BAF1020F01D0FB
:104A7000666501E00020009000E000BF00BFBAF1D1
:104A8000010F5FD1A06A08B9012000E0002050B9F1
:104A900000BF502080F31188BFF34F8FBFF36F8F9B
:104AA00000BF00BFFEE71B480068A8BB201DFDF744
:104AB000C5FB94F82C10012088401449096808436C
:104AC00012490860E16A01EB8101114A02EB8100A1
:104AD000211DFDF78DFB25E00925630925750925B5
:104AE000750925750D0A0000540000200925750977
:104AF00009257525250D0A0009257509093C31256B
:104B0000250D0A004400002004ED00E05C000020B8
:104B1000D00100207C000020FFE704F118014F487D
:104B2000FDF766FB4E49E06A0968C96A884209D9FF
:104B3000BBF1000F03D00120CBF8000002E0012000
:104B40004849086000BF85F3118800BF0098BDE8A0
:104B5000F88F2DE9F04105460F4655B900BF5020AA
:104B600080F31188BFF34F8FBFF36F8F00BF00BF7B
:104B7000FEE700F0DEFC2C4600BF5021EFF3118071
:104B800081F31188BFF34F8FBFF36F8F00BF0646CD
:104B900094F85880022084F85800606D401C6065CD
:104BA000B8F1010F3BD1A06A08B9012000E0002054
:104BB00050B900BF502080F31188BFF34F8FBFF36F
:104BC0006F8F00BF00BFFEE727480068A8B9201D0F
:104BD000FDF734FB94F82C10012088402349096824
:104BE000084322490860E16A01EB8101204A02EB97
:104BF0008100211DFDF7FCFA04E004F118011748BB
:104C0000FDF7F6FA1649E06A0968C96A884206D9CA
:104C100017B10120386002E001201249086000BF8E
:104C200086F3118800BFBDE8F08170B5054615B95F
:104C30000B48006800E02846064600F01FFC96F886
:104C40005800022804D1002086F85800012400E012
:104C5000002400F03AFC204670BD00005C020020F9
:104C600044000020680000207C0000205C00002040
:104C7000D00100202DE9F04104460D4616461F469E
:104C80004FF0000865602461B5420CD8F01BA169A3
:104C9000884202D34FF0010811E0211DF748006857
:104CA000FDF7B2FA0BE0BE4204D2BD4202D34FF090
:104CB000010804E0211DF2480068FDF7A5FA40460E
:104CC000BDE8F0812DE9FE4304460D4616461F4619
:104CD000DDF828804FF0000954B900BF502080F360
:104CE0001188BFF34F8FBFF36F8F00BF00BFFEE788
:104CF000E448006810B3009501960294062D15DA79
:104D0000FFF73BFB022808D1002342466946DD48F5
:104D10000068FDF7BDFB814610E000231A46694696
:104D2000D8480068FDF7B4FB814607E000233A4607
:104D30006946D4480068FDF707FE81464846BDE84D
:104D4000FE832DE9F84332E0CD480068C06805686D
:104D5000CB480068C068C468201DFDF76FFA204684
:104D6000616A8847E069012821D1A0694619AE42ED
:104D700007D966602461211DC1480068FDF744FA27
:104D800015E0002003462A46014600902046FFF722
:104D900099FF074657B900BF502080F31188BFF331
:104DA0004F8FBFF36F8F00BF00BFFEE700BFB44857
:104DB0000068006808B9012000E000200028C3D086
:104DC000AF48D0F80080AD480068AD490860AB48F6
:104DD000C0F80080BDE8F88370B50446FFF759F8C5
:104DE0000546A9480068854204D2FFF7AAFF0120C2
:104DF000206001E000202060A3480560284670BDC7
:104E000070B586B06AE00398002867DB059C60698E
:104E100008B9012000E0002010B9201DFDF70EFAAE
:104E200002A8FFF7D9FF054603980A2854D2DFE805
:104E300000F009050731334F0608323400BF00BFC8
:104E400000BF00BF0498A269811803462A46204685
:104E5000FFF710FFE8B12046616A8847E069012842
:104E600017D1002000900498A16942180023194628
:104E70002046FFF727FF064656B900BF502080F3B3
:104E80001188BFF34F8FBFF36F8F00BF00BFFEE7E6
:104E900000BF22E000BF20E000BF0498A061A0692D
:104EA00008B1012000E0002050B900BF502080F37D
:104EB0001188BFF34F8FBFF36F8F00BF00BFFEE7B6
:104EC000A06941192B462A462046FFF7D3FE04E08D
:104ED000204600F06CFC00E000BF00BF002203A9E8
:104EE00068480068FDF731FE00288CD106B070BD1F
:104EF000F8B505460F4662480068C068C468201DC2
:104F0000FDF79CF9E06901281DD1A06941192B46E4
:104F10003A462046FFF7AEFEA8B1002003462A46D7
:104F2000014600902046FFF7CDFE064656B900BF69
:104F3000502080F31188BFF34F8FBFF36F8F00BFF6
:104F400000BFFEE700BF2046616A8847F8BDF8B59C
:104F500005460C46FEF7E9FB6846FFF73DFF0646AF
:104F6000009820BB44B9B54206D8FEF730FB314665
:104F70002846FFF7BDFF1CE03CB1404800680068D0
:104F800008B9012000E000200446A91B22463D4844
:104F90000068FEF7C2F8FEF71AFB50B94FF08050D8
:104FA0003A490860BFF34F8FBFF36F8F01E0FEF700
:104FB0000EFBF8BD0146324A126812680AB9012296
:104FC00000E000220A600A6822B92D4A1268D268FD
:104FD000106800E00020704708B500BF6846FFF782
:104FE000E9FF044620460099FFF7B1FFFFF708FFED
:104FF000F4E710B500F042FA22480068D0B924481E
:10500000FDF7E6F82348FDF7E3F821481C4908605E
:1050100020481A49086000220C210A20FDF780F977
:10502000184908600846006820B11BA115480068AF
:10503000FEF74DF800F049FA10BD1CB50024FFF74B
:10504000D8FF1048006858B11548022100234FF4DA
:105050008272CDE9001013A11448FEF751F90446FD
:1050600054B900BF502080F31188BFF34F8FBFF3B6
:105070006F8F00BF00BFFEE720461CBD8C000020E4
:1050800088000020900000209800002004ED00E03F
:1050900098020020AC020020546D72510000000004
:1050A00094000020546D722053766300D94F00089D
:1050B0002DE9F04706460D4617469846DDE9089467
:1050C0000DB1012000E0002050B900BF502080F356
:1050D0001188BFF34F8FBFF36F8F00BF00BFFEE794
:1050E0005CB1FFF786FF2660A561E761C4F8208008
:1050F000C4F82490201DFDF778F8BDE8F0872DE96D
:10510000FC4705460E4617469846DDF828902C20A9
:1051100000F0B9FA04463CB143463A4631462846C7
:10512000CDE90094FFF7C4FF2046BDE8FC8749485D
:10513000006808B1012000E0002050B900BF5020F5
:1051400080F31188BFF34F8FBFF36F8F00BF00BF95
:10515000FEE740480068704701460A4651B900BF63
:10516000502080F31188BFF34F8FBFF36F8F00BFC4
:1051700000BFFEE79069704710B501460A4651B975
:1051800000BF502383F31188BFF34F8FBFF36F8F9E
:1051900000BF00BFFEE7506810BD01460A4651B986
:1051A00000BF502080F31188BFF34F8FBFF36F8F84
:1051B00000BF00BFFEE71068704770B50446264682
:1051C00054B900BF502080F31188BFF34F8FBFF355
:1051D0006F8F00BF00BFFEE700F050F9706908B99B
:1051E000012000E0002080F0010500F06EF9284663
:1051F00070BD70B50446254654B900BF502080F3F9
:105200001188BFF34F8FBFF36F8F00BF00BFFEE762
:1052100000F034F92E6A00F058F9304670BD70B5D0
:1052200004460D46264654B900BF502080F311882D
:10523000BFF34F8FBFF36F8F00BF00BFFEE700F0DB
:105240001DF9356200F041F970BD0146886A70476A
:105250008162704794000020D1480068401C08B962
:10526000012000E0002050B900BF502080F31188D9
:10527000BFF34F8FBFF36F8F00BF00BFFEE700BFCC
:10528000502080F31188BFF34F8FBFF36F8F00BFA3
:1052900000BFFEE7001F4FF080730360001F21F086
:1052A00001030360001FBF4B036014380260001F3E
:1052B0006FF0020303602038704700204FF0E021B8
:1052C00008618861B84800684FF47A71B0FBF1F06A
:1052D000401E4FF0E02148610720086170471CB56F
:1052E000B2480068B249884201D0012000E00020A5
:1052F00050B900BF502080F31188BFF34F8FBFF328
:105300006F8F00BF00BFFEE7A8480068A849491E8C
:10531000884201D0012000E0002050B900BF502099
:1053200080F31188BFF34F8FBFF36F8F00BF00BFB3
:10533000FEE7A049084600780190FF200A46107059
:105340000846007800909DF8000000F0F0009DF8FD
:105350000020904201D1012000E0002050B900BFA0
:10536000502080F31188BFF34F8FBFF36F8F00BFC2
:1053700000BFFEE79DF8000000F050008E4A10705C
:1053800007208E4A106009E08C480068401E8B4A56
:1053900010609DF800004006000E00909DF800008F
:1053A00000F080008028EFD084480068C0F107003A
:1053B000042801D1012000E0002050B900BF502096
:1053C00080F31188BFF34F8FBFF36F8F00BF00BF13
:1053D000FEE77A480068C0F10700042801D10120E7
:1053E00000E0002050B900BF502080F31188BFF3C7
:1053F0004F8FBFF36F8F00BF00BFFEE76F4800689D
:1054000000026E4A10601046008800F4E0601060F0
:10541000684A0198107065482030006840F47000B8
:105420006249203108600846006840F0704008601A
:10543000FFF743FF00205A490860FAF7D7FE60489B
:10544000006840F040405E490860FAF7BBFE00206B
:105450001CBD53480068B0F57A7F01D1012000E0FF
:10546000002050B900BF502080F31188BFF34F8F48
:10547000BFF36F8F00BF00BFFEE7704700BF502033
:1054800080F31188BFF34F8FBFF36F8F00BF444885
:105490000068401C4249086008460068012813D192
:1054A0004248001D0068C0B208B9012000E0002099
:1054B00050B900BF502080F31188BFF34F8FBFF366
:1054C0006F8F00BF00BFFEE770473548006850B9D6
:1054D00000BF502080F31188BFF34F8FBFF36F8F51
:1054E00000BF00BFFEE72E480068401E2C49086040
:1054F0000846006820B9002080F3118800BF00BF73
:10550000704710B500BF502080F31188BFF34F8F54
:10551000BFF36F8F00BFFDF7A6FF20B14FF08050A3
:105520002249091D086000BF002080F3118800BFD8
:1055300010BD70B5FAF792FE0446102C16D304F194
:10554000E02090F8F0531C480078854201DB0120F0
:1055500000E0002050B900BF502080F31188BFF355
:105560004F8FBFF36F8F00BF00BFFEE70F480C30B7
:10557000006800F4E06011490968884201D8012000
:1055800000E0002050B900BF502080F31188BFF325
:105590004F8FBFF36F8F00BF00BFFEE770BD0000ED
:1055A0009C000020595200081400002000ED00E08B
:1055B00071C20F4100E400E0A0000020A400002020
:1055C00034EF00E010B501469F4800E00068036832
:1055D0008B42FBD30246436813448B4204D1436899
:1055E0004C682344436001460A464B6813440468F0
:1055F000A34211D1954C03682468A34208D04B689C
:105600000468646823444B6003681B680B6005E012
:105610008E4B1B680B6001E003680B60884200D072
:10562000016010BD30B54FF49633894800F007048F
:105630002CB1C01D20F00700854C041B1B1B02462B
:10564000814C22600024804D6C60D018083820F016
:1056500007007E4C206000247C4D2D686C607B4DE3
:105660002D682C601146441A4C60784C24680C60FC
:10567000784D4C682C60784D4C682C604FF000449D
:10568000764D2C6030BD2DE9F04104464FF0000806
:10569000FEF74BF86D48006808B9FFF7C3FF6F4885
:1056A0000068204000286BD1D4B1083404F0070012
:1056B000B0B104F00700C0F10800044404F0070092
:1056C00008B9012000E0002050B900BF502080F34D
:1056D0001188BFF34F8FBFF36F8F00BF00BFFEE78E
:1056E000002C4DD05C480068844249D8564E304664
:1056F000056801E02E462D686868A04202D228683D
:105700000028F7D151480068854239D0306800F14F
:105710000808286830606868001B102819D92F19FC
:1057200007F0070008B9012000E0002050B900BFD1
:10573000502080F31188BFF34F8FBFF36F8F00BFEE
:1057400000BFFEE76868001B78606C603846FFF7B2
:1057500039FF414968680968081A3F4908600846E6
:1057600000683C490968884203D23B4800683949CF
:1057700008603A4968680968084368600020286042
:10578000FDF725FF08F0070008B9012000E0002020
:1057900050B900BF502080F31188BFF34F8FBFF383
:1057A0006F8F00BF00BFFEE74046BDE8F08170B5D7
:1057B00006463546002E3FD0083D2C4627496068F6
:1057C0000968084008B1012000E0002050B900BF7E
:1057D000502080F31188BFF34F8FBFF36F8F00BF4E
:1057E00000BFFEE7206808B9012000E0002050B9A2
:1057F00000BF502080F31188BFF34F8FBFF36F8F2E
:1058000000BF00BFFEE7154960680968084098B10D
:10581000206888B911496068096888436060FDF7AD
:1058200084FF0D496068096808440B4908602046F8
:10583000FFF7C8FEFDF7CBFE70BD07480068704754
:105840000448006870477047A8000020B00000209E
:10585000C0020020B8000020B4000020BC000020DE
:105860001CB501210220FBF7FBF94FF440600090CA
:1058700001208DF8040000208DF8060003208DF82B
:10588000050001208DF8070069460248FAF7A2FFDB
:105890001CBD0000000402407FB505460C460121F6
:1058A0000220FBF710FA0295ADF804400020ADF895
:1058B0000600ADF80C0001A91D48FBF7BCFB012256
:1058C00011461B48FCF758F801211948FBF73CFC2E
:1058D0001D208DF8000001208DF8010000208DF8BA
:1058E000020001208DF803006846FAF79AFE7FBD9A
:1058F00010B500210F4A1160516053213120FFF78C
:10590000CBFF10BD10B501210948FCF74CF8012868
:1059100008D1084802684068521C40F1000005495F
:105920000A60486001210248FCF74EF810BD0000F3
:1059300000040040C000002040EA01039B0703D0A0
:1059400009E008C9121F08C0042AFAD203E011F8BE
:10595000013B00F8013B521EF9D27047D2B201E080
:1059600000F8012B491EFBD270470022F6E710B564
:1059700013460A4604461946FFF7F0FF204610BDBD
:10598000421C10F8011B0029FBD1801A7047034606
:1059900011F8012B00F8012B002AF9D118467047A5
:1059A00030B50B46014600202022012409E021FAEF
:1059B00002F59D4205D303FA02F5491B04FA02F5EC
:1059C0002844151EA2F10102F1DC30BD064C074D42
:1059D00006E0E06840F0010394E8070098471034BF
:1059E000AC42F6D3FAF7D4FB1C5C00083C5C000820
:1059F0000FB4054B10B503A9044A029800F02CF827
:105A000010BC5DF814FB00008D2000083C00002055
:105A10000FB4084B10B504A902AA039800F01CF8B3
:105A2000044602A9002000F0F3F8204610BC5DF8FF
:105A300014FB0000115C000802E008C8121F08C136
:105A4000002AFAD170477047002001E001C1121FFF
:105A5000002AFBD1704700002DE9FF4F8BB09A461A
:105A60000F460546002606E025280BD052460D9924
:105A700090476D1C761C28780028F5D10FB0304671
:105A8000BDE8F08F0024A0460122604900E00443F5
:105A900015F8013F203B02FA03F00842F7D12878BD
:105AA0002E2817D115F8010F44F004042A280ED02F
:105AB0006FF02F022878A0F1300109290AD808EBED
:105AC000880102EB410100EB01086D1CF2E757F879
:105AD000048B6D1C287869283ED006DC0028CDD0C8
